:020000040800F2
:10000000000008209D020008ED020008ED02000833
:10001000ED020008ED020008ED02000800000000FB
:10002000000000000000000000000000ED020008D9
:10003000ED02000800000000ED020008ED020008DB
:10004000ED020008ED020008ED020008ED020008D4
:10005000ED020008ED020008ED020008ED020008C4
:10006000ED020008ED020008ED020008ED020008B4
:10007000ED020008ED020008ED020008ED020008A4
:10008000ED020008ED020008ED020008ED02000894
:10009000ED020008ED020008ED020008ED02000884
:1000A000ED020008ED020008ED020008ED02000874
:1000B000ED020008ED020008ED020008ED02000864
:1000C000ED020008ED020008ED020008ED02000854
:1000D000ED020008ED020008ED020008ED02000844
:1000E000ED020008ED020008ED020008ED02000834
:1000F000ED020008ED020008ED020008ED02000824
:10010000ED020008ED020008ED020008ED02000813
:10011000ED020008ED020008ED020008ED02000803
:10012000ED020008ED020008ED020008ED020008F3
:10013000ED020008ED020008ED020008ED020008E3
:10014000ED020008ED020008ED020008ED020008D3
:10015000ED020008ED020008ED020008ED020008C3
:10016000ED020008ED020008ED020008ED020008B3
:10017000ED020008ED020008ED020008000000009A
:10018000ED020008ED020008ED020008ED02000893
:10019000ED020008ED020008ED020008ED02000883
:1001A000ED020008ED020008ED020008ED02000873
:1001B000ED020008ED020008ED020008ED02000863
:1001C000ED020008ED02000800000000ED0200084A
:1001D000ED020008ED020008ED020008ED02000843
:1001E000ED020008ED020008ED020008ED02000833
:0801F000ED020008ED02000819
:1001F8000348044B834202D0034B03B118477047AE
:100208000000002000000020000000000548064B08
:100218001B1AD90F01EBA301491002D0034B03B1FC
:100228001847704700000020000000200000000070
:1002380010B5064C237843B9FFF7DAFF044B13B126
:100248000448AFF300800123237010BD0000002094
:10025800000000003803000808B5054B1BB105492C
:100268000548AFF30080BDE80840FFF7CFBF00BFE7
:100278000000000004000020380300080020704738
:10028800034AD2F8883043F47003C2F888307047C4
:1002980000ED00E0DFF834D0FFF7F2FF0C480D491D
:1002A8000D4A002302E0D458C4500433C4188C42C9
:1002B800F9D30A4A0A4C002301E013600432A2422F
:1002C800FBD300F011F8FFF7D9FF704700000820B2
:1002D8000000002000000020580300080000002053
:1002E8001C000020FEE7000070B50D4B0D4D5B1B98
:1002F8009C100026A64209D100F01AF80A4D0B4BB3
:100308005B1B9C100026A64205D170BD55F8043B26
:1003180098470136EEE755F8043B98470136F2E76F
:100328005003000850030008500300085403000855
:10033800F8B500BFF8BC08BC9E467047F8B500BFCA
:08034800F8BC08BC9E4670479A
:04035000610200083E
:040354003902000862
:040000050800029D50
:00000001FF
