:020000040800F2
:100000000000082001030008510300085103000804
:1000100051030008510300085103000800000000CC
:100020000000000000000000000000005103000874
:1000300051030008000000005103000851030008AC
:100040005103000851030008510300085103000840
:100050005103000851030008510300085103000830
:100060005103000851030008510300085103000820
:100070005103000851030008510300085103000810
:100080005103000851030008510300085103000800
:1000900051030008510300085103000851030008F0
:1000A00051030008510300085103000851030008E0
:1000B00051030008510300085103000851030008D0
:1000C00051030008510300085103000851030008C0
:1000D00051030008510300085103000851030008B0
:1000E00051030008510300085103000851030008A0
:1000F0005103000851030008510300085103000890
:10010000510300085103000851030008510300087F
:10011000510300085103000851030008510300086F
:10012000510300085103000851030008510300085F
:10013000510300085103000851030008510300084F
:10014000510300085103000851030008510300083F
:10015000510300085103000851030008510300082F
:10016000510300085103000851030008510300081F
:10017000510300085103000851030008000000006B
:1001800051030008510300085103000851030008FF
:1001900051030008510300085103000851030008EF
:1001A00051030008510300085103000851030008DF
:1001B00051030008510300085103000851030008CF
:1001C000510300085103000800000000510300081B
:1001D00051030008510300085103000851030008AF
:1001E000510300085103000851030008510300089F
:0801F00051030008510300084F
:1001F8000348044B834202D0034B03B118477047AE
:100208000000002000000020000000000548064B08
:100218001B1AD90F01EBA301491002D0034B03B1FC
:100228001847704700000020000000200000000070
:1002380010B5064C237843B9FFF7DAFF044B13B126
:100248000448AFF300800123237010BD0000002094
:10025800000000009C03000808B5054B1BB10549C8
:100268000548AFF30080BDE80840FFF7CFBF00BFE7
:1002780000000000040000209C03000882B0164A19
:10028800136B43F002031363144B1A6822F44042C1
:100298001A601A6842F480421A6011E0009B013328
:1002A8000093009A0E4B9A42F8DD0C4A936943F486
:1002B8000003936100230193019A094B9A4207DDD9
:1002C800064A936943F08003936100230093E8E7AB
:1002D800019B01330193EFE700380240000402401C
:1002E80040420F00034AD2F8883043F47003C2F842
:1002F8008830704700ED00E0DFF834D0FFF7F2FFF8
:100308000C480D490D4A002302E0D458C450043368
:10031800C4188C42F9D30A4A0A4C002301E013603E
:100328000432A242FBD300F011F8FFF7A7FF704791
:10033800000008200000002000000020BC03000886
:10034800000000201C000020FEE7000070B50D4BE7
:100358000D4D5B1B9C100026A64209D100F01AF82F
:100368000A4D0B4B5B1B9C100026A64205D170BDA5
:1003780055F8043B98470136EEE755F8043B984793
:100388000136F2E7B4030008B4030008B403000818
:10039800B8030008F8B500BFF8BC08BC9E46704713
:0C03A800F8B500BFF8BC08BC9E467047CA
:0403B40061020008DA
:0403B80039020008FE
:0400000508000301EB
:00000001FF
